:100000000C947A000C94C9000C94C9000C94C9009B
:100010000C94C9000C94C9000C94C9000C94C9003C
:100020000C94C9000C94AC000C94C9000C94C90049
:100030000C94C9000C94C9000C94C9000C94C9001C
:100040000C94C9000C94C9000C94C9000C94C9000C
:100050000C94C9000C94C9000C94C9000C94C900FC
:100060000C94C9000C94C9000C94C9000C94C900EC
:100070000C94C9000C94C9000C94C9000C94C900DC
:100080000C94C9000C94C9000C94C9000C94C900CC
:100090000C94C9000C94C9000C94C9000C94C900BC
:1000A0000C94C9000C94C9000C94C9000C94C900AC
:1000B0000C94C9000C94C9000C94C9000C94C9009C
:1000C0000C94C9000C94C9000C94C9000C94C9008C
:1000D0000C94C9000C94C9000C94C9000C94C9007C
:1000E0000C94C9000C94C9000C94C9000C94C9006C
:1000F0000C94C90011241FBECFEFCDBFDFE7DEBFD8
:0C0100000E9486000C94BE00F894FFCF13
:10010C00E0E2F4E081E0818392E091838583878350
:10011C00E0E0FAE080E09FE086A397A38081816015
:10012C00808382858160828780818C6080837894D3
:10013C00E0E2F4E081E087832FEF34E39CE0215090
:0C014C0030409040E1F700C00000F5CF0B
:100158008F938BB78F93EF93FF9382E0809327045D
:10016800E0E0FAE083858387FF91EF918F918BBF61
:040178008F911895B6
:10017C00EC010E94CE000E94CD00CE010E94CF0067
:06018C00CE010E94CB0031
:040192000C940000C9
:040196000E9484003F
:02019A000895C6
:02019C000895C4
:02019E000895C2
:00000001FF
