:100000000C9483000C9477210C9477210C94772125
:100010000C9477210C9477210C9477210C94772100
:100020000C9477210C9477210C9477210C947721F0
:100030000C9477210C9477210C9477210C947721E0
:100040000C9477210C9477210C9477210C947721D0
:100050000C9477210C9477210C9477210C947721C0
:100060000C9477210C9477210C9477210C947721B0
:100070000C9477210C9477210C9477210C947721A0
:100080000C9477210C9477210C9477210C94772190
:100090000C9477210C9477210C9477210C94772180
:1000A0000C9477210C9477210C9477210C94772170
:1000B0000C9477210C9477210C9477210C94772160
:1000C0000C9477210C9477210C9477210C94772150
:1000D0000C9477210C9477210C9477210C94772140
:1000E0000C9477210C9477210C9477210C94772130
:1000F0000C9477214000440280440244460042FCB4
:1001000044464448800011241FBECFEFCDBFDFE737
:10011000DEBFE4EFF0E041E019C0B791A79137915D
:100120002791079107FD0EC097918791EF01F92F55
:10013000E82F0BBF07900D92A217B307D9F7FE0166
:100140001BBE04C01D92A217B307E1F7E530F40708
:0E01500021F70E944A0E0C940D21F894FFCF67
:10015E00000000000000000000065F5F06000000C7
:10016E000007070007070000147F7F147F7F14002D
:10017E00242E6B6B3A120000466630180C66620035
:10018E00307A4F5D377A4800040703000000000004
:10019E00001C3E63410000000041633E1C00000055
:1001AE00082A3E1C1C3E2A0808083E3E080800008D
:1001BE0000A0E06000000000080808080808000021
:1001CE0000006060000000006030180C06030100A3
:1001DE003E7F594D7F3E000042427F7F40400000EF
:1001EE00627359496F660000226349497F360000E9
:1001FE00181C16137F7F1000276745457D390000B8
:10020E003C7E4B4979300000036371190F070000E3
:10021E00367F49497F360000064F49693F1E000070
:10022E0000006C6C0000000000A0EC6C00000000F0
:10023E00081C36634100000014141414141400003A
:10024E00004163361C080000020351590F060000DE
:10025E003E7F415D5D1F1E007C7E13137E7C000081
:10026E00417F7F49497F36001C3E63414163220036
:10027E00417F7F41637F1C00417F7F495D41630069
:10028E00417F7F491D0103001C3E63415173720083
:10029E007F7F08087F7F000000417F7F41000000C4
:1002AE00307040417F3F0100417F7F081C77630023
:1002BE00417F7F41406070007F7F060C067F7F008C
:1002CE007F7F060C187F7F001C3E6341633E1C003F
:1002DE00417F7F49090F06001E3F21717F5E00009E
:1002EE00417F7F19396F460026674D597B320000DA
:1002FE0003417F7F410300007F7F40407F7F0000EE
:10030E001F3F60603F1F00007F7F3018307F7F00EF
:10031E0063771C081C776300074F78784F0700003F
:10032E006773594D47637100007F7F4141000000A4
:10033E000103060C183060000041417F7F00000071
:10034E00080C0603060C0800808080808080808068
:10035E000000030704000000207454543C78400051
:10036E00413F7F44447C3800387C44446C28000074
:10037E00307848493F7F4000387C54545C18000068
:10038E00487E7F490302000098BCA4A4F87C0400B8
:10039E00417F7F08047C780000447D7D4000000092
:1003AE0040C484FD7D000000417F7F10386C440006
:1003BE0000417F7F400000007C7C0C180C7C780094
:1003CE007C7C04047C780000387C44447C3800003B
:1003DE0084FCF8A4243C1800183C24A4F8FC8400E7
:1003EE00447C78441C180000485C5454742400006B
:1003FE0000043E7F442400003C7C40403C7C400096
:10040E001C3C60603C1C00003C7C6030607C3C000E
:10041E00446C3810386C44009CBCA0A0FC7C0000DE
:10042E004C64745C4C64000008083E774141000047
:10043E0000000077770000004141773E0808000079
:08044E00020301030203010097
:100456000000000000000000000000000000000096
:100466000000FF0100000000000000000000000086
:1004760000E0FF0F000000007038DE3F3E1800006D
:1004860000F0FF1F00000000D878DE3B331C0000A0
:1004960000FCFF7F000000008C798E21231C0000E9
:1004A60000FE00FE000000008C798EA9233C0000AF
:1004B600003F00F8010000008C798F89033C0000A2
:1004C600001F00F0010000008C798D8F03360000BC
:1004D600800F00E0030000008CF98D8B7B3200005A
:1004E600C00700C0070000008CD98D89333E00008C
:1004F600C0030080070000008CD98DA13372000074
:10050600E00300800F0000008CD98DA1337200003B
:10051600E0FFC7FF0F000000D8D98D31336300001C
:10052600E0FFC7FF0F000000F8FCDE3F3FF70000CA
:10053600E0FFC7FF0F000000000000000000000001
:10054600E0FFC7FF0F0000000000000000000000F1
:10055600E0E1000E0E0000000000000000000000B8
:10056600E0E1000E0E0000000000000000000000A8
:10057600E0C101070F00C0F37F3FBCE3FBF7EF07C5
:10058600E0C101070F008033676E3833DBE7EC0FFD
:10059600E08183030F00803347C61819CA64C80C6C
:1005A600E08383830F00801357C69838CA64CA1C39
:1005B600C003C7810700001317C6D870C060C21CED
:1005C600C007C7C1070000131F7EF8E0C1E0C31CC7
:1005D600800FEEE003000013177EF8C0C3E0C21CD4
:1005E600021FFEF08300001F1766D881C360C21C7D
:1005F6001E3F7CF8F100000F47669819C360C81CBF
:10060600FE7FFEFDFF00000E4766981BC260C80C09
:10061600FE7FFEFDFF00000E476E991BC361CC0CEA
:10062600FE7FFEFDFF00008E7FFFBDFFE3F3EF07B9
:10063600FE7FFEFDFF00000000000000000000003D
:1006460000000000000000000000000000000000A4
:10065600000000000000005F000000070007001413
:100666007F147F14242A7F2A1223130864623649D2
:100676005522500005030000001C224100004122C3
:100686001C00082A1C2A0808083E080800503000EA
:10069600000808080808006060000020100804022E
:1006A6003E5149453E00427F400042615149462144
:1006B60041454B311814127F1027454545393C4AB0
:1006C6004949300171090503364949493606494900
:1006D600291E003636000000563600000008142297
:1006E600411414141414412214080002015109067D
:1006F600324979413E7E1111117E7F494949363E84
:10070600414141227F4141221C7F494949417F099C
:100716000901013E414151327F0808087F00417FAF
:1007260041002040413F017F081422417F40404064
:10073600407F0204027F7F0408107F3E4141413E14
:100746007F090909063E4151215E7F09192946465E
:100756004949493101017F01013F4040403F1F2087
:1007660040201F7F2018207F631408146303047839
:100776000403615149454300007F414102040810CA
:100786002041417F000004020102044040404040F5
:10079600000102040020545454787F4844443838F9
:1007A60044444420384444487F3854545418087EFE
:1007B600090102081454543C7F0804047800447D5F
:1007C60040002040443D00007F10284400417F4007
:1007D600007C041804787C080404783844444438BF
:1007E6007C14141408081414187C7C0804040848A3
:1007F60054545420043F4440203C4040207C1C205C
:1008060040201C3C4030403C44281028440C5050AA
:10081600503C4464544C44000836410000007F00BC
:0B08260000004136080002010302013F
:1008310000000000005C00000C000C007C287C28FB
:1008410058DC68002410480028542840000C00009F
:10085100007884008478000054385400107C100023
:1008610080400000101010000040000060100C00DB
:1008710038543800487C40004864580044542C00E7
:100881001C107C005C5424003854240064140C00B7
:1008910068542C004854380000480000804800008B
:1008A1001028440028282800442810000454080077
:1008B10038445C00781478007C54280038442800BF
:1008C1007C4438007C5444007C1404003844740097
:1008D1007C107C00447C440020403C007C106C0077
:1008E1007C4040007C187C0078103C003844380083
:1008F1007C1408003844B8007C1468004854240073
:10090100047C04007C407C003C603C007C307C002A
:100911006C106C000C700C0064544C00007C4400A2
:100921000C106000447C00000804080080808000F6
:1009310000040800304878007C4830003048480006
:1009410030487C00306850001078140090A878007E
:100951007C08700050744000808074007C10680036
:10096100447C4000781078007808700030483000EE
:10097100F82810003048F800781008005058280076
:10098100083C48003840780038403800782078002A
:100991004830480098A078004868580010788400D2
:0C09A100007C00008478100008040804AA
:1009AD0048656C6C6F21004F562D504F5420726569
:1009BD0061643A200025347500566F6C746167656B
:0D09CD003A200025752E2530327520560089
:1009DA0068076C094C836A9074A07AC000806888A2
:0609EA0000846C82008114
:1009F000494E4600696E66004E414E006E616E00C3
:100A0000494E4600696E66004E414E006E616E00B2
:070A1000286E756C6C2900D3
:060A1700286E696C290045
:100A1E00A5E2B0E0E5E1F5E00C94E21F8E8F9F8F2A
:100A2E006E8B7F8B298FFB010190F081E02DE98782
:100A3E00FA87FB0102811381248135812A8B3B8B3E
:100A4E008085918588A399A30680F781E02DE9839F
:100A5E00FA83FA0180809180A280B38020E030E09A
:100A6E00A901C501B4010E94622187FF06C0B7FA31
:100A7E00B094B7F8B0948DE204C0F985F2FF68C364
:100A8E008BE2E981FA8180832A893B8921503109E1
:100A9E002B833C8341E050E0488B598B06C08A89FA
:100AAE009B898B839C83188A198AD501C401BF77D1
:100ABE000097E0E8AE07EFE7BE07F1F4F98D2F2FB0
:100ACE00FF0F330B2154310989819A814889598945
:100ADE00840F951F2A31310520F440E05AE060E082
:100AEE0003C044E05AE060E00E94CD2089819A81E3
:100AFE003C01E0E88E2E19C30197A048BF47F0F0E5
:100B0E00498D242F440F330B2154310989819A8149
:100B1E00E889F9898E0F9F1F2A31310520F448E0AC
:100B2E005AE060E003C04CE05AE060E00E94CD2045
:100B3E0029813A81390140E8842EF7C220E030E065
:100B4E00A901C501B4010E946221C12CD12C20E85B
:100B5E00E22E2FE3F22E212C312C882309F487C0AC
:100B6E008D829E82AF82B88620E030E040E251E472
:100B7E00C701B6010E946C212B013C01D501C401B5
:100B8E0084199509A609B709B7FF07C0B095A095B6
:100B9E00909581959F4FAF4FBF4F0297A105B1051D
:100BAE0034F45FEF251A350A73016201DDCFA5011A
:100BBE009401C301B2010E94622187FDF2CF8D81A3
:100BCE009E81AF81B8858C199D09AE09BF0901962A
:100BDE00A11DB11D0397A105B10508F446C01D82E4
:100BEE001E82A5019401C701B6010E946721181645
:100BFE00F4F584ED28168EEF3806E4F4ED81FE81CF
:100C0E00EF2BC1F420E030E040E85AE5C501B40115
:100C1E000E946C214B015C0120E030E040E85AE577
:100C2E00C701B6010E946C216B017C0121E030E00E
:100C3E002D833E8320E030E040E251E4C701B6014F
:100C4E000E9470216B017C0131E0231A3108D5011D
:100C5E00C4018C199D09AE09BF090196A11DB11DD4
:100C6E000397A105B10508F0BCCF46015701498D88
:100C7E00842F440F990B0E942A21888F17FD03C0E1
:100C8E000D831E8304C086E090E08D839E83988D35
:100C9E00973639F4012B41F4E1E0F0E0ED83FE8369
:100CAE0003C0488D4F8710C02CEF22162FEF32064F
:100CBE000CF453C22D813E81221633060CF04DC228
:100CCE0037FE4EC256E65F878D819E8101968D83DB
:100CDE009E839F85963699F437FE08C0C12CD12C81
:100CEE0090E8E92E9FE3F92E212C312CE88DE73682
:100CFE0031F02D813E81220D331D2D833E831C2D1F
:100D0E00DCA2EAA20F2D8B869C86AD86BE861C8A3F
:100D1E001D8A8C899D89ED81FE818E179F07DCF5DA
:100D2E00212F3CA14AA1502F6B857C858D859E85F8
:100D3E000E9470210E9489172B013C010E945521AF
:100D4E006A8FA3019201612F7CA18AA1902F0E942C
:100D5E006C212B853C854D855E850E944E219B0125
:100D6E00AC0150582B873C874D875E8720E030E0E2
:100D7E0040E251E4612F7CA18AA1902F0E94702144
:100D8E00162F7CA38AA3092F4C895D894F5F5F4F75
:100D9E004C8B5D8BBECF20E030E040EA50E4612FFB
:100DAE007CA18AA1902F0E946C212B013C019B01FA
:100DBE00AC016B857C858D859E850E94622187FDA9
:100DCE000DC0A30192016B857C858D859E850E9449
:100DDE006221811106C0FA8DF0FD03C0412C512C09
:100DEE003201A5019401C301B2010E944F214B01B2
:100DFE005C0120E030E040E251E4C701B6010E9400
:100E0E006C216B877C8B182F092F9B01482F592F34
:100E1E00C501B4010E94672187FD11C02FEF221A70
:100E2E00320A3F85363679F44D815E814F5F5F4FD2
:100E3E004D835E835B855CA38C898DA30BC0CB86B3
:100E4E00DC8A1E2D0F2D9F85953631F0EB85ECA398
:100E5E00FC89FDA3710106C02B852CA33C893DA303
:100E6E00E12CF12C48885988C12CD12C1C8A1D8A62
:100E7E001B861C8649855A85407155274AA35BA35C
:100E8E002B853C854D815E812417350734F08C8986
:100E9E009D89892B09F497C0A3C03201EE89FF8981
:100EAE008085918505974816590688F72CA13DA196
:100EBE00412F502FC501B4010E9470210E94891745
:100ECE006A8F7B8F8C8F9D8F0E9455216A307105A2
:100EDE0014F069E070E08AA19BA1892B69F4611579
:100EEE00710551F4988D973639F4F7FE05C0360129
:100EFE00EFEF6E1A7E0A3BC02C893D89232BA1F49D
:100F0E00F7FE12C03FEF431A530AE981FA81E60D4C
:100F1E00F71D4EE240838B819C8101978B839C83CE
:100F2E00E1E0F0E0EC8BFD8BE981FA81E40DF51D3B
:100F3E0036016114710431F020E3219331E0631A1C
:100F4E007108F7CFC601840D951D2B813C812C199C
:100F5E003D092C014FEF441A540AE981FA81E80F3A
:100F6E00F91F605D6083C90101978B839C832A8D75
:100F7E003B8D4C8D5D8D6CA17DA1812F902F0E949C
:100F8E006C21A50194010E944E214B015C01B7FA20
:100F9E00B094B7F8B09420E030E040E251E46CA198
:100FAE007DA1812F902F0E9470216CA37DA3182FFD
:100FBE00092F91E0E91AF108EB85FC853196EB8754
:100FCE00FC8763015DCFF985F4FF0AC0E981FA81E0
:100FDE00E40DF51D8EE2808392012F5F3F4F2901B4
:100FEE0049815A81440D551D4D835E83FA0110824D
:100FFE00FF85F53609F063C0E981FA8128A139A190
:10100E00E20FF31F3197108237FE06C03194219400
:10101E00310801E010E002C000E010E0E8A1F9A103
:10102E00319749815A81E40FF51F22E030E08AE0C2
:10103E00E82EF12CCF0149815A81841B950B211486
:10104E00310479F0C101B7010E943F20805D829387
:10105E001B01215031098B819C8101978B839C83CD
:10106E00E9CF1216130674F3FC013197E40FF51F46
:10107E00012B11F42BE201C02DE220830297E981AE
:10108E00FA81E80FF91F598D252F550F330B215477
:10109E0031092A31310510F025E601C025E42083FF
:1010AE002B813C81225031092B833C8348165906F3
:1010BE0034F4AF0160E88D819E810E94CD2049817C
:1010CE005A813A0180E8882E998591FF2EC090FDB5
:1010DE002CC0EB81FC811E161F063CF5882DB3013A
:1010EE000E947A2029813A81820F931F9C014981A7
:1010FE005A81241B350BE889F9892E173F074CF0CE
:10110E00FC012081EB81FC81E80FF91F2083019700
:10111E00EDCF4B815C8160E370E089819A818E0F07
:10112E009F1F0E9418211A8A1B8A882DB3010E94C4
:10113E007A20E984FA840A891B899C01682DA3010F
:10114E008E8D9F8D0E943F1BA596E2E10C9413207D
:10115E00598553FFA4CC80E294CC35E63F87CFCDA2
:06116E0046E64F87CCCDE0
:10117400A0E2B0E0E0ECF8E00C94E21F8A8F9B8FD1
:10118400FB012E8B20812D8331813C8F82819381C1
:10119400888B998B248135812A873B87808591852B
:1011A4008D8F9E8F46805780FA01C080D180E28067
:1011B400F38020E030E0A901C701B6010E9462215A
:1011C40087FF06C0F7FAF094F7F8F0948DE204C0B4
:1011D4005D8152FFEFC28BE2F20180832A853B8559
:1011E400215031092887398741E050E04B835C83E3
:1011F40006C08A859B85888799871B821C82B701D4
:10120400A6017F774115510590E869079FE77907A3
:10121400D1F4AE892A2FAA0F330B215431098B81C3
:101224009C81840D951D2A31310520F440EF59E04D
:1012340060E003C044EF59E060E00E94CD2064EF19
:1012440079E080E01EC0EE892E2FEE0F330B8B81E8
:101254009C81840D951D4130510560487F47D8F02D
:10126400215431092A31310520F448EF59E060E076
:1012740003C04CEF59E060E00E94CD206CEF79E0B0
:1012840080E00E947A20A20160E8ED80FC8C0A854F
:101294001B859C0187C240E3FC014083EB81FC81F8
:1012A4003196E40DF51D4B815C814E5F5F4F4B839E
:1012B4005C83C90181549109888F998F4A9710F0F2
:1012C40088E701C088E5808320E030E0A901C701F8
:1012D400B6010E946221612C712C1F8E18A28823F2
:1012E40009F464C090E89983AFE3AA832F8D38A1F1
:1012F40049815A816F8D78A189819A810E944F21F9
:101304005B018C01A70196010E94672118160CF459
:1013140042C0EFEF6E1A7E0AAF8EB8A209831A8319
:10132400E5CF20E030E040E05FE36F8D78A1898174
:101334009A810E946C2120E030E0A9010E94622180
:10134400811118C020E030E040E85AE56F8D78A1A3
:1013540089819A810E946C216F8F78A389839A83F3
:1013640020E030E040E85AE5C701B6010E946C2154
:101374006B017C0120E030E040E05FE36F8D78A1F9
:1013840089819A810E946C216F8F78A389839A83C3
:10139400F1E06F1A71082F8D38A149815A81C70174
:1013A400B6010E94622187FDBCCF04C020E82983D6
:1013B4003FE33A834889598957FD02C0CA0102C0F4
:1013C40088E190E0FC013196EC87FD878F8C98A032
:1013D400A980BA80160187011E821F829401A5018B
:1013E400B101C8010E9470210E9489176A8B7B8B0E
:1013F4008C8B9D8B9401A5010E946C219B01AC01F7
:10140400B101C8010E944E211B018C0120E030E093
:1014140040E85DE3B401C5010E946C214B015C010D
:101424002E813F812F5F3F4F2E833F834889598907
:1014340057FF09C020E030E0A901B101C8010E94B2
:101444006221882341F08C859D85EE81FF81E81718
:10145400F90724F204C02E813F812C873D8720E0C8
:1014640030E040E051E4B401C5010E946C214B011D
:101474005C019B01AC01B101C8010E94622187FD9E
:1014840012C0A5019401B101C8010E946221811119
:101494000DC06A897B898C899D890E945521617060
:1014A4007727672B19F4812C912C5401A501940101
:1014B400C701B6010E944F216B017C01DC01CB0105
:1014C400BF770097A048BF4709F4A3CE2884398486
:1014D40042E0241A31088C859D8591958195910966
:1014E4008A8B9B8B0B811C81A12CB12C1E821F82A9
:1014F400812C912CED8DFE8D3597EE8BFF8B08871B
:101504001987EE89FF890E171F0708F092C02F8DE7
:1015140038A149815A81C701B6010E9470210E94F5
:1015240089176C877D878E879F870E945521AB0121
:101534006115710539F48114910421F0FFEFAF1A9C
:10154400BF0A4EC02E813F81232B91F48114910454
:1015540079F00F5F1F4FE885F985E40DF51D3EE234
:101564003083A1E02A1A3108E1E0F0E0EE83FF8342
:10157400F201E00FF11F95012115310529F0A0E3D7
:10158400A19321503109F8CFF801EA0DFB1DE8873A
:10159400F9872A183B084A3051051CF4605D7F4FD7
:1015A40002C0695A7F4F288D398D2A31310550F494
:1015B400CB018062815691094A9720F4CB010E94A5
:1015C4002121BC01088519850F5F1F4FE885F98526
:1015D400E40DF51D608331E0231A3108A12CB12CF0
:1015E4002F8D38A149815A816C857D858E859F8593
:1015F4000E946C219B01AC01C701B6010E944E21DF
:101604006B017C0120E030E040E85DE36F8D78A160
:1016140089819A810E946C216F8F78A389839A8330
:1016240041E0841A91088A899B898815990509F0F3
:1016340066CF2E813F81232B51F5F201E00FF11F7C
:10164400A114B104E9F04889598914161506C4F4A3
:101654005D8150FD15C08EE28083F8013196E40D62
:10166400F51DC50120E321930197E9F70A0D1B1D20
:101674000F5F1F4FC50180959095280E391E07C036
:101684008D8184FF04C08EE280830F5F1F4FF201BF
:10169400E00FF11FEE83FF831082ED8DFE8D3197F5
:1016A400E40DF51D108277FE07C0719461947108F2
:1016B400EE24E394F12C02C0E12CF12C21E030E083
:1016C4008AE0C82ED12CCF018419950961147104C4
:1016D40069F0C301B6010E943F20805D82933B0103
:1016E4002150310941E0241A3108EDCF2130310570
:1016F40081F3FC013197E40DF51DEF2811F42BE281
:1017040001C02DE220830297F201E80FF91F288D12
:10171400398D2A31310510F020E701C020E52083FE
:101724000817190734F4AF0160E88E819F810E9485
:10173400CD20320130E8832E4D8141FF28C040FD89
:1017440026C052E0251A31081214130404F5882D1A
:10175400B3010E947A20840D951D9C01241935093A
:101764004B815C81241735073CF0FC012081E20D9C
:10177400F31D20830197F1CFA10160E370E08B8119
:101784009C81840D951D0E9418211A861B86882D24
:10179400B3010E947A20ED80FC8C0A851B859C0194
:1017A400682DA3018A8D9B8D0E943F1BA096E2E1C8
:0E17B4000C9413205D8153FF1CCD80E20DCDFF
:1017C2002F923F924F926F927F928F929F92AF92FF
:1017D200BF92CF92DF92EF92FF920F931F93CF931C
:1017E200DF93CDB7DEB76297CDBFDEBF4C016B0191
:1017F200380119821A828FEF9FEF8B839C831D829F
:101802001E824F83588729873A87A12CB12CD60193
:101812002D913D914C912A0D3B1D411DB7FC4A95DE
:10182200F901542F0E944721862F611116C0F6013B
:10183200208331834283F901542F0E94472165326C
:1018420009F011C21901442EFFEF2F1A3F0A4F0A65
:10185200D6012D923D924C921BC0653241F3B401E8
:10186200082E000C990B0E94F31A4FEFA41AB40A27
:10187200CECF6C32DCF06D3229F529813A812160BC
:1018820029833A830196A11DF60180839183A28365
:10189200F60180819181A281FC015A2F0E94472189
:1018A2006B3239F729813A812460EACF603221F420
:1018B20029813A812860E4CF633251F429813A8147
:1018C2002061DECF603321F429813A812260D8CFB2
:1018D200B701C6010E945C1C8D839E8397FF0BC0DB
:1018E20029813A81F1E02F2729833A8391958195C5
:1018F20091098D839E8389819A8180FF03C08D7FA8
:1019020089839A83F60180819181A281FC015A2FF9
:101912000E9447216E3261F40196A11DF601808377
:101922009183A283B701C6010E945C1C8B839C83B6
:10193200C6010E94501A182FD6019C9111968C91C3
:10194200119712965C91E92FF82F0E944721862F5A
:10195200660F990B0E942A21893609F44BC084F440
:10196200833609F41CC134F4853209F448C1813646
:10197200E1F053C18436F1F188360CF4EBC04DC16D
:10198200803709F4B2C03CF48E3609F4D8C08F36E1
:1019920009F46EC042C1853709F44BC0883709F497
:1019A20086C0833709F039C110C1612F70E0A701E9
:1019B200CE010B960E94591F892B09F44BC1F601E7
:1019C20080819181A2819C014A2F2F5F3F4F4F4F0F
:1019D200208331834283FC015A2F0E944721262F04
:1019E200AE01455F5F4FBE016F5F7F4FC4010E9432
:1019F200BA082DC1612F70E0970141E050E0CE019D
:101A02000B960E94A913892B09F424C1F601808147
:101A12009181A2810196A11D80839183A283AE014F
:101A2200455F5F4FBE016F5F7F4FC4010E94681424
:101A32000EC1612F70E0970140E050E0CE010B969D
:101A42000E94A913892B09F405C1F60180819181B5
:101A5200A2810196A11D80839183A283AE01455F7D
:101A62005F4FBE016F5F7F4FC4010E94A619EFC096
:101A7200612F70E0970140E050E0CE010B960E948A
:101A8200A913892B09F4E6C0F60180819181A28114
:101A92000196A11D80839183A283AE01455F5F4FB2
:101AA200BE016F5F7F4FC4010E94D518D0C0612F65
:101AB20070E0970140E050E0CE010B960E94A9131E
:101AC200892B09F4C7C0F60180819181A2819C0112
:101AD2004A2F2F5F3F4F4F4F208331834283FC01B8
:101AE2005A2F0E944721262F20C0970140E050E044
:101AF20060EF70E0CE010B960E94A913892B09F4C6
:101B0200A9C0F60180819181A2810196A11D8083E5
:101B12009183A2838B859C85892B31F400E010E0B0
:101B220027E13AE040E08DC028E7AE01455F5F4F14
:101B3200BE016F5F7F4FC4010E94AB1088C0A50138
:101B4200460D571D612F70E09701CE010B960E9442
:101B52000E1780C0612F70E0A701CE010B960E9484
:101B6200591F892B09F476C0F60180819181A281E7
:101B72009C014A2F2F5F3F4F4F4F20833183428377
:101B8200FC015A2F0E944721262FAE01455F5F4F6D
:101B9200BE016F5F7F4FC4010E940F0558C010380D
:101BA20009F058C0F60180819181A2810196A11DA0
:101BB20080839183A283D701ED91FC911197CF018C
:101BC20002968D939C93808126C0103809F042C002
:101BD200F60180819181A2810196A11D808391836A
:101BE200A283D701ED91FC911197CF0103968D93BA
:101BF2009C9320813181428100E010E022C01038A4
:101C020049F5F6012081318142812F5F3F4F4F4FCD
:101C12002083318342838B870EC085E28B87F60156
:101C220020823182428219821A821D821E828FEFA5
:101C32009FEF8B839C839E01255F3F4F40E801E02D
:101C420010E0BE016F5F7F4FC4010E949B1C8A0D92
:101C52009B1D0AC0F60180819181A2810196A11D7E
:101C620080839183A283C5016296CDBFDEBFDF91DF
:101C7200CF911F910F91FF90EF90DF90CF90BF9087
:101C8200AF909F908F907F906F904F903F902F904A
:021C92000895B3
:101C94000F931F93CF93DF93CDB7DEB7AE97CDBF2E
:101CA400DEBF0E947A1D80E090E0AAEFB4E489834D
:101CB4009A83AB83BC8320E030E04AE754E4698133
:101CC4007A818B819C810E946C21DC01CB018DA3E4
:101CD4009EA3AFA3B8A720E030E040E85FE36DA186
:101CE4007EA18FA198A50E94622188232CF481E013
:101CF40090E089A79AA73FC020E03FEF4FE757E461
:101D04006DA17EA18FA198A50E94672118164CF59C
:101D140020E030E040E251E469817A818B819C814A
:101D24000E946C21DC01CB01BC01CD010E94AB1DE2
:101D3400DC01CB0189A79AA70FC084E690E08BA7AA
:101D44009CA78BA59CA50197F1F78BA79CA789A5B8
:101D54009AA5019789A79AA789A59AA5892B69F7B6
:101D640014C06DA17EA18FA198A50E94AB1DDC01BA
:101D7400CB0189A79AA789A59AA58DA79EA78DA50A
:101D84009EA50197F1F78DA79EA70E94851605E3EE
:101D940014E426E030E041E050E06DEA79E080E0D0
:101DA4000E94FE190E94331E80E494E028E0FC01A6
:101DB400228380E494E028E0FC01228B0E94101D21
:101DC40080E090E0AAEFB4E48D839E83AF83B8876C
:101DD40020E030E04AE754E46D817E818F8198856C
:101DE4000E946C21DC01CB018B8F9C8FAD8FBE8F49
:101DF40020E030E040E85FE36B8D7C8D8D8D9E8D1F
:101E04000E94622188232CF481E090E08F8F98A3B4
:101E14003FC020E03FEF4FE757E46B8D7C8D8D8D05
:101E24009E8D0E94672118164CF520E030E040E2B8
:101E340051E46D817E818F8198850E946C21DC0143
:101E4400CB01BC01CD010E94AB1DDC01CB018F8F06
:101E540098A30FC084E690E089A39AA389A19AA1CC
:101E64000197F1F789A39AA38F8D98A101978F8F7A
:101E740098A38F8D98A1892B69F714C06B8D7C8DE5
:101E84008D8D9E8D0E94AB1DDC01CB018F8F98A39D
:101E94008F8D98A18BA39CA38BA19CA10197F1F793
:101EA4008BA39CA30E942B2066E574E080E00E9433
:101EB400271580E090E0AAEFB4E48D879E87AF8772
:101EC400B88B20E030E04AE754E46D857E858F8549
:101ED40098890E946C21DC01CB01898B9A8BAB8B96
:101EE400BC8B20E030E040E85FE369897A898B8924
:101EF4009C890E94622188232CF481E090E08D8BE0
:101F04009E8B3FC020E03FEF4FE757E469897A8911
:101F14008B899C890E94672118164CF520E030E0DB
:101F240040E251E46D857E858F8598890E946C21FD
:101F3400DC01CB01BC01CD010E94AB1DDC01CB0156
:101F44008D8B9E8B0FC084E690E08F8B988F8F894A
:101F5400988D0197F1F78F8B988F8D899E890197C2
:101F64008D8B9E8B8D899E89892B69F714C0698915
:101F74007A898B899C890E94AB1DDC01CB018D8BF6
:101F84009E8B8D899E89898F9A8F898D9A8D0197D1
:101F9400F1F7898F9A8F0E942B200E94AA1E86E057
:101FA4000E94DA1D969587959695879589879A87D5
:101FB4006CE080E00E94672084EB99E0A0E08A2F27
:101FC4008F9384EB99E0A0E0892F8F9384EB99E0C1
:101FD400A0E08F9385E08F930E941D1C0F900F90BB
:101FE4000F900F908A858F9389858F9382EC99E067
:101FF400A0E08A2F8F9382EC99E0A0E0892F8F9341
:1020040082EC99E0A0E08F9388E08F930E941D1CDE
:102014000F900F900F900F900F900F9089859A85D5
:102024000E948A1B89859A859C0140E050E083E4E4
:1020340091E0DC010E940221DC01CB0120EA36E8B8
:1020440041E050E0BC01CD010E94151FDA01C90135
:102054008B8789859A859C0140E050E083E491E078
:10206400DC010E940221DC01CB0120EA36E841E0D8
:1020740050E0BC01CD010E94151FDC01CB0128EE0C
:1020840033E040E050E0BC01CD010E94151FDA01AD
:10209400C9018C876CE083E00E94672086EC99E09C
:1020A400A0E08A2F8F9386EC99E0A0E0892F8F938C
:1020B40086EC99E0A0E08F9385E08F930E941D1C2D
:1020C4000F900F900F900F908C85282F30E08B8508
:1020D400882F90E0432F4F932F93292F2F938F9383
:1020E40080ED99E0A0E08A2F8F9380ED99E0A0E045
:1020F400892F8F9380ED99E0A0E08F9388E08F93F0
:102104000E941D1C8DB79EB70896CDBFDEBF0E94EE
:10211400331E80E494E0FC018085882F90E0887071
:102124009927892B09F03BCF66E574E080E00E9493
:102134002715000080E494E0FC018085882F90E05E
:1021440088709927892BB1F30E942B200E94AA1E24
:0221540026CF94
:10215600A4E1B0E0E1EBF0E10C94E21F8F839887F5
:1021660069837A834B8B5C8B122FDB011296ED9180
:10217600FC91139714962D913C9115972D833E83D0
:10218600ED90FC90119716962D903C901797F7FDC1
:1021960003C0E894E1F802C0E1E0F0E0C701807115
:1021A600992789879A87E4FE1FC0AB89BC892C9141
:1021B60011963C91119712964C91129713965C9139
:1021C600139714966C91149715967C9115971696FD
:1021D6008C91169717969C91A0E00E94F62021F00C
:1021E6008D819E81029702C08D819E819701287004
:1021F60033272B873C87E3FC0197AB89BC894C903E
:1022060011965C90119712966C90129713967C908B
:10221600139714968C90149715969C90159716966E
:10222600AC9016971796BC90A981BA811896CD9056
:10223600DC901997B1E0CB1AD108D101AC0DBD1DC8
:102246001C928B839C839F01281B390B2D873E870D
:10225600C701827099278F87988B812F012E000CDA
:10226600990BDC01A154B109A98BBA8B32E0C316D4
:10227600D10430F489859A85892B09F04CC073C046
:102286009201A301B401C501A0E00E94F62081F1EC
:10229600B1E0CB1AD108C2018F7099278A30910517
:1022A60014F4C09602C0895A9F4FE989FA897A9731
:1022B60048F49C012062215631092A31310510F477
:1022C6000E942121F101EC0DFD1D80832B813C81B3
:1022D600215031092B833C839201A301B401C5012E
:1022E60004E00E947B1F29013A014B015C01BECF2D
:1022F6008D859E85AB81BC818A0F9B1F181619069A
:102306003CF21A161B060CF0B5CFEF85F889EF2BB9
:1023160009F0BECFAFCFAB89BC892C9111963C9109
:10232600119712964C91129713965C9113971496E7
:102336006C91149715967C91159716968C91169715
:1023460017969C91A0E00E94F62069F0F101EC0D31
:10235600FD1D31971083B2E0CB1AD108F101EC0DC7
:10236600FD1D80E38083EB85FC85EF2B41F0F1E0DA
:10237600CF1AD108F101EC0DFD1D80E28083A98101
:10238600BA8118962D913C911997215031092C1933
:102396003D09C20CD31CA60160E80D811E818F8108
:1023A60098850E943F1B9C01EF81F8858081918171
:1023B60090FF09C0A981BA8112968D919C911397BD
:1023C600821793070CF4C9016496E2E10C9413207A
:1023D600CF93DF93CDB7DEB76C97CDBFDEBF80E27C
:1023E60094E020E2FC01268380E090E0A0E2B1E4E4
:1023F60089839A83AB83BC8320E030E04AE754E4C8
:1024060069817A818B819C810E946C21DC01CB01E0
:102416008B8B9C8BAD8BBE8B20E030E040E85FE37E
:102426006B897C898D899E890E94622188232CF480
:1024360081E090E08F8B988F3FC020E03FEF4FE721
:1024460057E46B897C898D899E890E9467211816BD
:102456004CF520E030E040E251E469817A818B81DD
:102466009C810E946C21DC01CB01BC01CD010E9444
:10247600AB1DDC01CB018F8B988F0FC084E690E0FB
:10248600898F9A8F898D9A8D0197F1F7898F9A8F07
:102496008F89988D01978F8B988F8F89988D892B2F
:1024A60069F714C06B897C898D899E890E94AB1D52
:1024B600DC01CB018F8B988F8F89988D8B8F9C8FAA
:1024C6008B8D9C8D0197F1F78B8F9C8F80E294E02A
:1024D60020E2FC01258380E090E0A0E2B1E48D8358
:1024E6009E83AF83B88720E030E04AE754E46D81ED
:1024F6007E818F8198850E946C21DC01CB018987C2
:102506009A87AB87BC8720E030E040E85FE36985C7
:102516007A858B859C850E94622188232CF481E034
:1025260090E08D879E873FC020E03FEF4FE757E45E
:1025360069857A858B859C850E94672118164CF5DE
:1025460020E030E040E251E46D817E818F81988504
:102556000E946C21DC01CB01BC01CD010E94AB1DA8
:10256600DC01CB018D879E870FC084E690E08F87C4
:10257600988B8F8598890197F1F78F87988B8D8532
:102586009E8501978D879E878D859E85892B69F708
:1025960014C069857A858B859C850E94AB1DDC01FC
:1025A600CB018D879E878D859E85898B9A8B8989A0
:1025B6009A890197F1F7898B9A8B00006C96CDBFAB
:0825C600DEBFDF91CF91089503
:1025CE000F93CF93DF93CDB7DEB72E97CDBFDEBF80
:1025DE0089874A875B876C872D870E8789858A3026
:1025EE0051F4809147448F5F809347441092464444
:1025FE0080E090E0A0C08985803218F089858F3701
:10260E0018F080E090E097C080914644282F30E08B
:10261E008D85882F90E0280F391F8E85882F90E0AA
:10262E00820F931F813891053CF0109246448091A1
:10263E0047448F5F8093474480914744883018F019
:10264E0080E090E078C08985882F90E08097AC017B
:10265E008D85282F30E0429FC001439F900D529FE1
:10266E00900D1124092E000CAA0B2A853B854C8552
:10267E00820F931FA41F8B839C83AD83198234C05A
:10268E0080914744882F90E09C013695322F222767
:10269E00379527958091464491E0980F9093464444
:1026AE00882F90E0B901680F791F8981882F90E0FB
:1026BE00092E000CAA0B2B813C814D81820F931F9A
:1026CE00A41FCC01AA2FB0E08E839F838E819F81A1
:1026DE00FC01849188872885CB018E5F9F4BFC017E
:1026EE00208389818F5F898399818D85981740F228
:1026FE001A821BC080914744882F90E09C0136952A
:10270E00322F2227379527958091464491E0980FD6
:10271E0090934644882F90E0820F931F8E5F9F4BBD
:10272E00FC0110828A818F5F8A839A818E85981729
:10273E0008F380E090E02E96CDBFDEBFDF91CF9103
:04274E000F9108954A
:102752000F931F93CF93DF93FC01D9016838710562
:1027620059F194F461387105D9F12CF4603871058E
:1027720009F483C0A5C06238710509F464C06438E5
:10278200710509F47AC09CC0603A710509F453C01E
:102792002CF46039710509F456C092C0603C710591
:1027A20009F443C0603F710509F08AC0CD91DC9104
:1027B2001197CE01039677C0CD91DC911197CE018E
:1027C20002968D939C93452B39F09881892F880F1F
:1027D200880B9083818361C088818083118269C064
:1027E200CD91DC911197CE0104968D939C93452B4C
:1027F20099F088819981AA81BB81AC01BD01770FD3
:10280200440B542FBA0180839183A283B383448300
:102812004583468347832EC0088119812A813B81E3
:10282200008311832283338346C0CD91DC911197BB
:10283200CE01029638C0CD91DC911197CE0102965D
:102842008D939C9323C0CD91DC911197CE01089674
:102852008D939C93788169815A814B813C812D8132
:102862009E818F8170836183528343833483258366
:102872009683878381E090E025C0CD91DC9111970A
:10288200CE0102968D939C93452B79F099812881F4
:10289200892F880F880B208391838283838384838B
:1028A20085838683E6CF8D939C930881198100836B
:1028B2001183128213821482158216821782DACF52
:0E28C20080E090E0DF91CF911F910F9108957B
:1028D000ADE0B0E0EEE6F4E10C94E21F89879A8760
:1028E0006B837C83FA01DB011296CD90DC90139709
:1028F00014968D919C9115978D839E83ED90FC90FD
:102900001197E982FA8216960D90BC91A02DAF83A3
:10291000B8872080318042805380648075808680B3
:1029200097808101B42DF52DE62D7B868C869D86C2
:102930009101A201B301C401A0E00E94F6204CF471
:102940000E94AE208901B42FF52FE62F7B878C875C
:102950009D87D7FC04C0E894E1F8E982FA829101EE
:10296000A201B301C401A0E0ED80FE800E94F62028
:102970001CF0898182FF04C081E0E81AF10805C0DB
:1029800083FF03C091E0E91AF108CE0101965C01D2
:102990008AE0C82ED12C2B2F3F2F4E2F5B856C85C4
:1029A0007D858B819C810E94E115FC019101A20132
:1029B000B301C401A0E00E94F6201CF0898182FFCF
:1029C00012C031970F8118850E0F1F1F9101A201B0
:1029D000B301C401A0E00E94F62014F08BE201C014
:1029E0008DE2D80108C083FF07C03197AF81B88559
:1029F000AE0FBF1F80E28C93E980FA80AB81BC816F
:102A000018962D913C911997215031092E1B3F0B9F
:102A10008F819885E80FF91FAF0160E80D811E8155
:102A200089859A850E943F1B9C01A985BA858D9155
:102A30009C9190FF07C0EB81FC818281938182177A
:0E2A400093070CF4C9012D96E2E10C941320CB
:102A4E00CF93DF93CDB7DEB76497CDBFDEBF6A8B72
:102A5E007B8B8C8B1982A1C01A8298C01B823BC0C3
:102A6E008B81682F70E08981882F90E09C01220F66
:102A7E00331F220F331F220F331F8B81882F90E0BD
:102A8E00820F931F9C0122953295307F3227207F33
:102A9E0032278A81882F90E0820F931F092E000C17
:102AAE00AA0B2A893B894C89820F931FA41FCC0144
:102ABE00AA2FB0E08F8398878F819885FC0184912F
:102ACE0089872985CE010A96860F971FFC012083E0
:102ADE008B818F5F8B838B81883008F4C1CF1C82F2
:102AEE004EC01D821E8225C08E81882F90E09E01D1
:102AFE00265F3F4F820F931FFC018081882F90E04D
:102B0E002C81222F30E002C0959587952A95E2F709
:102B1E00817099272E81222F30E002C0880F991FD5
:102B2E002A95E2F7982F8D81892B8D838E818F5F69
:102B3E008E838E818830C0F28981882F90E09C012F
:102B4E0022953295307F3227207F32278A81882F37
:102B5E0090E0820F931F9C01220F331F220F331F11
:102B6E00220F331F8C81882F90E0820F931F8E5F70
:102B7E009F4B2D81FC0120838C818F5F8C838C81F8
:102B8E00883008F4AECF8A818F5F8A838A81803144
:102B9E0008F464CF89818F5F89838981843008F43A
:102BAE005BCF0E94331E00006496CDBFDEBFDF9167
:042BBE00CF91089516
:102BC200A2E1B0E0E7EEF5E10C94E21FFC010A8B12
:102BD2001B832C83732E642E552E462E7D83CC862A
:102BE200D886AE82BF82268137812A873B87D5016C
:102BF2008D919C9122813381408551851A01B1E0EA
:102C02002B1A310837FF02C021E030E0EA85FB854C
:102C1200E20DF31D10824701E1E0F0E0E983FA835F
:102C2200A9014E195F094D875E87DC01A270BB279F
:102C3200AF87B88BB885BB0FBB0BB98B211431049E
:102C420009F451C02A893B814C81572D662D752D7F
:102C5200842D9D81A0E00E94F620B1F1E1E02E1AC0
:102C62003108FC85F987AF2EB884C988DC2CEC2C9E
:102C7200FC2C0C2D1C2D2A893B814C81572D662D55
:102C8200752D842D9D810E94DB20C90129839A83A1
:102C9200EA85FB85E20DF31D805D808321E0821AC7
:102CA20091082A893B814C81572D662D752D842DE3
:102CB2009D810E94DD202A8B3B834C83752E662EDC
:102CC200572E482E9D83BACF8D859E85880D991DDE
:102CD200181619061CF2181419042CF44F85588979
:102CE200452B09F0BBCF89819A81892B41F4AE81B2
:102CF200BF818D919C9111978F7E8D939C93C10181
:082D02006296E2E10C9413203B
:102D0A00CF93DF93CDB7DEB76297CDBFDEBF80E248
:102D1A0094E020E2FC0121830E94EB118EEA0E94DA
:102D2A008C2085ED898380E88A8362E070E0CE0199
:102D3A0001960E94841E88EA8B838FE78C83CE01DA
:102D4A00039662E070E00E94841E83ED8D831E82EA
:102D5A00CE01059662E070E00E94841E80E40E9423
:102D6A008C208DE88F8384E18887CE01079662E004
:102D7A0070E00E94841E80E289871A86CE01099635
:102D8A0062E070E00E94841E81EA0E948C2088EC36
:102D9A000E948C208AED8B8782E18C87CE010B966C
:102DAA0062E070E00E94841E81E88D878FEC8E8736
:102DBA00CE010D9662E070E00E94841E89ED8F8735
:102DCA0081EF888BCE010F9662E070E00E94841E2C
:102DDA008BED898B80E48A8BCE01419662E070E0AC
:102DEA000E94841E84EA0E948C2086EA0E948C201B
:102DFA008EE20E948C208FEA0E948C200E942B2057
:102E0A000E94331E00006296CDBFDEBFDF91CF91D4
:022E1A00089519
:102E1C00CF92DF92EF92CF93DF93DC01F90164380C
:102E2C00710509F43FC064F46138710531F1623801
:102E3C00710509F446C06038710509F05CC032C0F8
:102E4C0060397105F1F194F46838710509F053C0DB
:102E5C00C081D181CE01039680839183C880D980B3
:102E6C00EA80F601CD92DC92408342C0603A710553
:102E7C00C9F0603C7105B1F03EC0C081D181CE017A
:102E8C00039680839183C880D980EA80F601CD9225
:102E9C00DC92052E000C660B770B4083518362830A
:102EAC00738326C0C081D181CE0103968083918328
:102EBC00C880D980EA80F601CD92DC9240835183A0
:102ECC0017C0C081D181CE01039680839183C880C5
:102EDC00D980EA80F601CD92DC9240835183852F14
:102EEC00880F880B8283838384838583868387837F
:102EFC0081E090E002C080E090E0DF91CF91EF9014
:062F0C00DF90CF90089554
:102F12008F929F92AF92BF92CF92DF92EF92FF92E7
:102F22000F931F938B019C0157E1369527951795B7
:102F320007955A95D1F71127A8014F5751094731E3
:102F420051050CF045C057FD2DC00FEF1FEF2FE7C5
:102F520030E004C035952795179507954A95D2F725
:102F62004801590186229722A822B92289288A2853
:102F72008B2871F197FF07C0DC01CB01800F911FF5
:102F8200A21FB31F02C0DC01CB0100951095209552
:102F9200309580239123A223B323482F392F2A2F40
:102FA2005B2F1AC097FF0FC08B019C01000F111FEE
:102FB200221F331F012B022B032B51F040E030E084
:102FC20020E85FEB09C040E030E020E050E004C0C0
:102FD200462F372F282F592F642F732F822F952F8B
:102FE2001F910F91FF90EF90DF90CF90BF90AF9025
:062FF2009F908F900895EE
:102FF80010C00E94402158F00E94392140F029F465
:103008005F3F29F00C945C2151110C9433210C94EE
:1030180074210E94371F68F39923B1F3552391F364
:10302800951B550BBB27AA2762177307840738F02F
:103038009F5F5F4F220F331F441FAA1FA9F335D08C
:103048000E2E3AF0E0E832D091505040E695001C40
:10305800CAF72BD0FE2F29D0660F771F881FBB1FFA
:10306800261737074807AB07B0E809F0BB0B802DD8
:10307800BF01FF2793585F4F3AF09E3F510578F004
:103088000C945C210C9433215F3FE4F3983ED4F315
:10309800869577956795B795F7959F5FC9F7880FD8
:1030A800911D9695879597F90895E1E0660F771F2A
:1030B800881FBB1F621773078407BA0720F0621BBB
:0E30C800730B840BBA0BEE1F88F7E09508958A
:1030D6000FC00E94392138F00E94402120F095232C
:1030E60011F00C945C210C94742111240C9433215E
:1030F6000E94371F70F3959FC1F3950F50E0551F3F
:10310600629FF001729FBB27F00DB11D639FAA2736
:10311600F00DB11DAA1F649F6627B00DA11D661F85
:10312600829F2227B00DA11D621F739FB00DA11DA6
:10313600621F839FA00D611D221F749F3327A00D60
:10314600611D231F849F600D211D822F762F6A2FFC
:1031560011249F5750409AF0F1F088234AF0EE0F61
:10316600FF1FBB1F661F771F881F91505040A9F78E
:103176009E3F510580F00C945C210C9433215F3FF7
:10318600E4F3983ED4F3869577956795B795F795CA
:10319600E7959F5FC1F7FE2B880F911D9695879542
:0431A60097F90895F8
:1031AA00A2E0B0E0EBEDF8E10C94E21F1C014B0148
:1031BA00FA01DB0112962D913C91139714964D90CA
:1031CA005C9015978D919C91119789839A83169695
:1031DA006D907C90179737FD03C08D7F89839A8302
:1031EA0000811181228133814481558166817781F1
:1031FA00FE0131965F0188E0C82ED12C7201C4010C
:10320A000E94E115298124FF06C00197F301E80F06
:10321A00F91F20E32083298123FF06C00197F301C8
:10322A00E80FF91F20E22083E980FA80D40118967A
:10323A002D913C91199721503109281B390B860D84
:10324A00971DAC0160E88201C1010E943F1B9C01ED
:10325A00F1018081918190FF08C0D40112968D916D
:10326A009C911397821793070CF4C9012296E2E105
:04327A000C9413207D
:10327E0011C00E94392138F00E94402120F039F40B
:10328E009F3F19F426F40C9474210EF4E095E7FB9D
:10329E000C945C21E92F0E94371F58F3BA1762076E
:1032AE0073078407950720F079F4A6F50C94322164
:1032BE000EF4E0950B2EBA2FA02D0B01B901900143
:1032CE000C01CA01A0011124FF27591B99F0593F87
:1032DE0050F4503E68F11A16F040A22F232F342FCF
:1032EE004427585FF3CF469537952795A795F0401D
:1032FE005395C9F77EF41F16BA0B620B730B840B32
:10330E00BAF09150A1F0FF0FBB1F661F771F881FE9
:10331E00C2F70EC0BA0F621F731F841F48F4879541
:10332E0077956795B795F7959E3F08F0B0CF939533
:0E333E00880F08F09927EE0F97958795089550
:10334C00A2E0B0E0ECEAF9E10C94E21F3C014B0185
:10335C00FA01DB0112962D913C91139714964D9026
:10336C005C9015978D919C91119789839A831696F1
:10337C002D903C90179737FD03C08D7F89839A83DE
:10338C00008111812281338144815581668177814D
:10339C00FE0131965F018AE0C82ED12C7201C40166
:1033AC000E94E115E980FA80D40118962D913C9188
:1033BC00199721503109281B390B820D931DAC0133
:1033CC0060E88201C3010E943F1B9C01F3018081D4
:1033DC00918190FF08C0D40112968D919C91139706
:1033EC00821793070CF4C9012296E2E10C94132086
:1033FC008F929F92AF92BF92CF92DF92EF920F93E8
:10340C001F93CF93DF9301151105A1F1D8011D96E0
:10341C00ED91FC911E97EF2B69F14115510551F17E
:10342C002115310539F1E901429F4001439F900C70
:10343C00529F900C11246B01E82EA12CB12C8A14F4
:10344C009B04B1F0F6015E2D0E944721862FD80116
:10345C001D96ED91FC911E97B8010995BFEFCB1A03
:10346C00DB0AEB0A892B49F42FEFA21AB20AE7CF39
:10347C00CE0104C080E090E001C0C501DF91CF9186
:10348C001F910F91EF90DF90CF90BF90AF909F90D6
:04349C008F90089570
:1034A000CF92DF92EF92DC0190E0292F30E0220FE3
:1034B000331F6901032E000CEE086E2DA601465243
:1034C000564F6F4F6A01E62EFA015E2D0E9447218A
:1034D000862F61110EC02F5F3F4F032E000C440B4F
:1034E0002652364F4F4FF901542F0E944721862F05
:1034F00025C0CD90DD90EC901297F6015E2D0E94D4
:103500004721861316C02F5F3F4F032E000C440B3C
:103510002652364F4F4FF901542F0E944721962FC4
:103520005FEFC51AD50AE50ACD92DD92EC921297AB
:1035300001C09F5F9B3008F4B8CF892FEF90DF90D8
:04354000CF9008958B
:1035440088249924F401E401B0E49F93AA279A15EE
:103554008B049C04ED05FE05CF05D007A10798F464
:10356400AD2FDC2FCF2FFE2FE92D982C892E982FED
:10357400872F762F652F542F432F322F2227B850B1
:1035840031F7BF9127C01B2EBF91BB27220F331FDA
:10359400441F551F661F771F881F991F881C991C7D
:1035A400EE1FFF1FCC1FDD1FAA1FBB1F8A149B0425
:1035B400EC05FD05CE05DF05A007B10748F08A1824
:1035C4009B08EC09FD09CE09DF09A00BB10B2160B2
:1035D4001A94E1F62EF49401AF01BE01CD01000C62
:0235E400089548
:1035E6000F931F93CF93DF93DB01109719F48FEF9F
:1035F6009FEF3DC02D913C91119730FF25C0179646
:103606004D915C91189715962D913C9116974217FE
:10361600530778F41296ED91FC91139780831296D6
:103626002D913C9113972F5F3F4F12962D933C930C
:10363600139717962D913C9118972F5F3F4F17962A
:103646002D933C93189713C01D96ED91FC911E97F0
:10365600309769F2EB01092F182F0995892B39F656
:103666008F81988501968F839887812F902FDF9180
:08367600CF911F910F910895FF
:10367E006F927F928F92AF92BF92CF92DF92EF9224
:10368E00FF920F931F93CF93DF935C013A01862E27
:10369E00E901670181E0C822DD24E0FC03C02017A8
:1036AE00310758F09E01682DA301C5010E94451DEA
:1036BE00C017D10710F0CE0118C07801EC1AFD0A20
:1036CE00E114F10449F0B50180E290E00E94F31A92
:1036DE0081E0E81AF108F4CFCD2831F49E01682D6F
:1036EE00A301C5010E94451DC801DF91CF911F9115
:1036FE000F91FF90EF90DF90CF90BF90AF908F9093
:06370E007F906F9008950A
:10371400CF93DF9300D000D0CDB7DEB78B839C83EB
:103724008B819C818115944020F08FEF93E08B83F3
:103734009C838B819C819C0140E050E086E690E074
:10374400DC010E940221DC01CB012FEF33E040E0D9
:1037540050E0BC01CD010E94151FDA01C9018A8322
:10376400198214C099818A81981738F48981835FFA
:103774004FE168EF0E94F21E06C08981835F40E139
:1037840068E00E94F21E89818F5F89838981863671
:1037940048F30E94331E00002496CDBFDEBFDF91A4
:0437A400CF91089524
:1037A800A3E8B0E0EAEDFBE10C94E81F5C014901F5
:1037B800CF57DF4F488359836A83C158D040C12C03
:1037C800D12CCF57DF4F9881C158D040CE57DF4F0B
:1037D8008881C258D040CD57DF4F5881C358D04058
:1037E800E92FF82F0E9447216623E9F0740186012A
:1037F80020E830E0AE014F5F5F4FBE016F577F4F4B
:10380800C5010E94E10B8C0D9D1D8C159D054CF486
:103818008FE490E080930040909301408FEF9FEFFA
:1038280003C06C01CECFC601CD57DF4FECE00C943E
:02383800192055
:10383A00CF93DF9300D0CDB7DEB7CE010B96898345
:10384A009A838F81882F90E08530910591F0883096
:10385A009105D9F0049709F024C029813A81888515
:10386A009985AA85AC016A2F82E094E40E94FB1F25
:10387A0018C029813A8188859985AA85AC016A2F61
:10388A0083E194E40E94FB1F0CC029813A81888558
:10389A009985AA85AC016A2F84E294E40E94FB1FF1
:0E38AA00000000000F900F90DF91CF91089565
:1038B800CF93DF93DC01EB012D913D914C91129751
:1038C800F901542F0E9447216A3221F080E090E0EC
:1038D8007AE00FC02F5F3F4F4F4F2D933D934C938E
:1038E800E881F981CF01029688839983808191814B
:1038F8001BC02D913D914C911297F901542F0E94B4
:10390800472160536A3080F4789FF001799FF00D69
:103918001124CF01860F911D2F5F3F4F4F4F2D93DD
:0E3928003D934C931297E5CFDF91CF91089518
:103936006F927F928F92CF92DF92EF92FF920F93C8
:103946001F93CF93DF936C01FB013901842EC801CD
:10395600C281D38104811581E080F180232B242B41
:1039660031F420E1622E2AE0722E20E0822E0097AA
:1039760021F4882DB3010E947A20D7FD04C0C81710
:10398600D90708F4CE019C01682DA301C6010E9447
:103996003F1BDF91CF911F910F91FF90EF90DF902A
:0A39A600CF908F907F906F900895EE
:1039B000CF93DF93CDB7DEB72697CDBFDEBF8B8326
:1039C0009C836D837E8319821A821CC080E099E0FB
:1039D00029813A814B815C81240F351FF9012081B7
:1039E000FC012087000080E099E0FC018581882FA0
:1039F00090E080749927892BB1F389819A8101968F
:103A000089839A8329813A818D819E81281739077C
:103A1000E8F200002696CDBFDEBFDF91CF9108957A
:103A2000CF93DF93CDB7DEB780E096E020E036E0BD
:103A3000F90120812460FC01208380E096E020E0F1
:103A400036E0F90121812260FC01218380EB90E0C6
:103A500025E0FC01208380E096E020E036E0F901DB
:103A60002281FC01228380E096E020E036E0F9012B
:103A700020812160FC01208380E694E024E0FC01A9
:0A3A8000278B0000DF91CF9108951D
:103A8A006F927F928F92CF92DF92EF920F931F9352
:103A9A00CF93DF938C016A01E62EE9013A01862E63
:103AAA00620E731E811C37FD8A94C614D704E8047B
:103ABA0081F0F6015E2D0E944721862FB801082E5B
:103ACA00000C990B0E94F31A8FEFC81AD80AE80A59
:103ADA00ECCFCE01DF91CF911F910F91EF90DF9044
:0A3AEA00CF908F907F906F900895A9
:103AF400CF93DF93CDB7DEB780E094E02CE0FC01F8
:103B0400218380E094E028E0FC01238780E094E0B6
:103B14002CE0FC01248780E099E0FC01168280E01F
:103B240099E0FC01178280E099E0FC01108680E0B6
:103B340099E021E0FC01258380E099E020E039E070
:103B4400F90123812160FC0123830000DF91CF91DF
:023B54000895D2
:103B56000E943F1F88F09F5798F0B92F9927B751B9
:103B6600B0F0E1F0660F771F881F991F1AF0BA951B
:103B7600C9F714C0B13091F00E943221B1E0089526
:103B86000C943221672F782F8827B85F39F0B93F18
:103B9600CCF3869577956795B395D9F73EF49095CE
:0E3BA6008095709561957F4F8F4F9F4F0895CA
:103BB400CF93DF930F92CDB7DEB7898380E096E091
:103BC4002981FC01208780E096E021E0FC01258723
:103BD40080E096E020E036E0F90122852160FC01D6
:103BE4002287000080E096E0FC018585882F90E024
:103BF40081709927892BB1F380E096E0FC018089DC
:0A3C040091890F90DF91CF91089590
:103C0E00CF93DF9300D0CDB7DEB789836A838A81E5
:103C1E00882339F080E099E02981220FFC01278367
:103C2E000AC080E099E02981222F30E0220F331F55
:103C3E002160FC012783000080E099E0FC01858172
:103C4E00882F90E080749927892BB1F300000F9094
:083C5E000F90DF91CF91089552
:103C6600CF93DF93CDB7DEB72697CDBFDEBF82E217
:103C760089831A828FEF8B8363E070E0CE01019611
:103C86000E94841E81E28C831D828FE78E83CE0183
:103C9600049663E070E00E94841E60E074E082E0B7
:103CA60090E40E945D1E00002696CDBFDEBFDF9128
:043CB600CF9108950D
:103CBA00CF93DF93CDB7DEB72597CDBFDEBF8A831B
:103CCA009B836C837D8361E08DE30E94071E80E401
:103CDA00898361E070E0CE0101960E94D81C2C8194
:103CEA003D818A819B81B9010E94D81C0E94E920EA
:0E3CFA0000002596CDBFDEBFDF91CF9108956B
:103D0800CF93DF93CDB7DEB72597CDBFDEBF8A83CC
:103D18009B836C837D8361E08DE30E94071E19827B
:103D280061E070E0CE0101960E94D81C2C813D8193
:103D38008A819B81B9010E94D81C0E94E920000059
:0C3D48002596CDBFDEBFDF91CF9108951E
:103D5400CF93DF930F92CDB7DEB74FE168EF8CE0DE
:103D64000E94F21E4FE168EF83E70E94F21E19825F
:103D740009C08981835F40E168E00E94F21E898165
:103D84008F5F898389818636A0F30E94331E0000E9
:083D94000F90DF91CF9108951B
:103D9C00990F0008550FAA0BE0E8FEEF1616170650
:103DAC00E807F907C0F012161306E407F50798F0B8
:103DBC00621B730B840B950B39F40A2661F0232BD1
:103DCC00242B252B21F408950A2609F4A140A6954D
:083DDC008FEF811D811D089588
:103DE400CF93DF9300D00F92CDB7DEB789836A8378
:103DF4004B838981882F90E080589F4F8E5F9F4B23
:103E04002A81FC0120838981882F90E093958E5F1D
:103E14009F4B2B81FC01208300002396CDBFDEBF86
:063E2400DF91CF9108952B
:103E2A00A1E21A2EAA1BBB1BFD010DC0AA1FBB1FB4
:103E3A00EE1FFF1FA217B307E407F50720F0A21B26
:103E4A00B30BE40BF50B661F771F881F991F1A9493
:103E5A0069F760957095809590959B01AC01BD01BD
:043E6A00CF010895E7
:103E6E0057FD9058440F551F59F05F3F71F047951D
:103E7E00880F97FB991F61F09F3F79F08795089502
:103E8E00121613061406551FF2CF4695F1DF08C021
:103E9E00161617061806991FF1CF8695710561053E
:043EAE0008940895D7
:103EB200FA0160387105CCF0623871051CF0633884
:103EC200710599F4A081B1819D012C5F3F4F208340
:103ED20031834D915D916D917C91FC0140835183C1
:103EE2006283738381E090E0089580E090E008951A
:103EF20097FB10F8169400080F93083098F00850BA
:103F0200232F342F452F562F672F782F892F902D4F
:103F1200F4CF05949795879577956795579547952B
:0C3F2200379527950A95AAF70F9108958E
:103F2E000F93CF93DF9300D00F92CDB7DEB7898377
:103F3E006A837B8300E024E041E358E060E08981FE
:103F4E000E94E7122396CDBFDEBFDF91CF910F9176
:023F5E000895C4
:103F60000F93CF93DF9300D00F92CDB7DEB7898345
:103F70006A837B8301E025E046E556E060E08981C5
:103F80000E94E7122396CDBFDEBFDF91CF910F9144
:023F9000089592
:103F92000F93CF93DF9300D00F92CDB7DEB7898313
:103FA2006A837B8300E028E04EE551E060E089818E
:103FB2000E94E7122396CDBFDEBFDF91CF910F9112
:023FC200089560
:103FC4002F923F924F925F926F927F928F929F9225
:103FD400AF92BF92CF92DF92EF92FF920F931F9313
:103FE400CF93DF93CDB7DEB7CA1BDB0BCDBFDEBFEC
:023FF40009942E
:103FF600A2E0B0E0E1E0F0E20C94F01F8C0129832E
:104006003A839E012F5F3F4F0E94D41BF801208107
:1040160024FF02C08FEF9FEF2296E4E00C9421204C
:104026002A88398848885F846E847D848C849B8442
:10403600AA84B984C884DF80EE80FD800C811B8150
:10404600AA81B981CE0FD11DCDBFDEBFED01089586
:10405600CF93DF93CDB7DEB740E054E060E070E089
:1040660082E090E40E941821109246441092474440
:084076000000DF91CF910895D5
:10407E0097FB072E16F4009407D077FD09D00E9407
:10408E00532007FC05D03EF4909581959F4F0895DF
:08409E00709561957F4F0895B4
:1040A600AA1BBB1B51E107C0AA1FBB1FA617B70758
:1040B60010F0A61BB70B881F991F5A95A9F7809574
:0840C6009095BC01CD010895A5
:1040CE00CF93DF9300D0CDB7DEB789836A83898122
:1040DE00809347448A818093464400000F900F904E
:0640EE00DF91CF9108955F
:1040F4009B01482FA82FCB01FC015A2F0E94472176
:10410400662319F00196A11DF7CF642FA901841B22
:04411400950B08956A
:10411800CF93DF930F92CDB7DEB7898361E070E06C
:10412800CE0101960E94841E00000F90DF91CF916E
:024138000895E8
:10413A00092E0394000C11F4882352F0BB0F40F4AB
:10414A00BF2B11F460FF04C06F5F7F4F8F4F9F4FEB
:02415A000895C6
:10415C0060957095809590953095409550952195EA
:10416C003F4F4F4F5F4F6F4F7F4F8F4F9F4F089574
:10417C00A29FB001B39FC001A39F700D811D11249C
:0E418C00911DB29F700D811D1124911D08958B
:10419A009A01462FDC01F901542F0E9447216D93A1
:0C41AA002F5F3F4F4F4F6111F6CF08957B
:1041B600689401C0E8948F929F92CF93DF930E94F8
:0C41C600A21ADF91CF919F908F90089576
:1041D200CF93DF93CDB7DEB780E099E023E0FC0117
:0A41E20024830000DF91CF910895BF
:1041EC000024A7FD00942A173005400550056005F2
:0841FC0070058005900508958F
:104204000E94BE20A59F900DB49F900DA49F800D89
:06421400911D1124089524
:10421A00EC010E947C210E947B21CE010E947D211B
:06422A00CE010E94792183
:10423000FC01480F591FE417F50711F06193FBCFFC
:024240000895DF
:104242009C01215631092A31310510F48F759927C5
:024252000895CD
:104254009C01215431092A31310508F48062089502
:0E426400E894BB2766277727CB0197F90895CA
:0E42720000240A941616170618060906089569
:0E42800000240A94121613061406050608956B
:0E428E0057FD03C05BBF6791089560810895DE
:0E429C005058BB27AA270E943F190C949D2062
:0E42AA000E94AB1D6894B1110C94332108954D
:0C42B80097F99F6780E870E060E00895CF
:0A42C4000E94CE1E08F481E0089568
:0A42CE000E94CE1E08F48FEF089541
:0842D8000E946B180C949D205C
:0842E0000E94FC170C949D20C4
:0642E8009FEF80EC089539
:0442EE000C9400002C
:0442F2000E94AD0079
:0242F600089529
:0242F800089527
:0242FA00089525
:1042FC0003000000000000000000000000971F00F9
:01430C0000B0
:10430D0003000000000000000000000000B01F00CE
:01431D00009F
:10431E0003000000000000000000000000C91F00A4
:01432E00008E
:10432F0003000000000000000000000000971F00C5
:01433F00007D
:00000001FF
